:100000000C942A000C943F000C943F000C943F0089
:100010000C943F000C943F000C943F000C943F0064
:100020000C943F000C943F000C943F000C943F0054
:100030000C943F000C943F000C943F000C943F0044
:100040000C943F000C943F000C943F000C943F0034
:100050000C943F0011241FBECFE5D4E0DEBFCDBF1E
:1000600010E0A0E6B0E0E2E3F9E002C005900D92F6
:10007000A83AB107D9F70E945B000C9497040C943E
:100080000000DC0190E00DC0292F30E0FD01E20FFF
:10009000F31F4081FB01E20FF31F2081421305C0D3
:1000A0009F5F943088F381E0089580E0089581E0B7
:1000B0000E94C0010895CF93DF93CDB7DEB7299793
:1000C0000FB6F894DEBF0FBECDBF0E9436010E946E
:1000D0000C020E94270180E00E94960281E00E94AB
:1000E00096020E94D0020E94EA020E9457000E94DB
:1000F000310180E090E00E94B40281E090E00E9433
:10010000B40285E0E2EAF0E0DE01119601900D9282
:100110008A95E1F780E790E00E9489022FEF89E657
:1001200098E1215080409040E1F700C00000DD24BC
:10013000D39488C00E94570088E790E00E9489020B
:1001400080EC0E94C001E12CF12C1DC00E2D10E0AE
:100150000E947701E6E0F0E0EC0FFD1FE00FF11FD9
:1001600080838F3F81F08D3351F4E6E0F0E0EC0FB7
:10017000FD1FE00FF11F1082FF24F39404C08AE2F8
:100180000E943D02E394FF2009F30E945700BE0144
:100190006F5F7F4FCE0106960E9441008130A1F42F
:1001A00082E890E00E94890280E00E94A5022FEF81
:1001B00087EA91E6215080409040E1F700C00000BE
:1001C0006894DD24D2F83EC022E02D1568F088E85E
:1001D00090E00E9489028FEF93ED20E381509040E0
:1001E0002040E1F700C0000083E0D8122AC089E96E
:1001F00090E00E9489020E94E50219E00DC0812F63
:100200000E94EF029FEF23ED80E391502040804059
:10021000E1F700C00000115011238CF70E942C015F
:1002200010E00DC081E00E94C3029FEF29E688E143
:10023000915020408040E1F700C000001F5F163061
:100240008CF3D39493E09D1508F074CF4CCF61E00C
:1002500082E00E940A03089561E082E00E948D031B
:10026000089560E082E00E948D03089560E08EE1D1
:100270000E940A0360E08FE10E940A0360E080E2CE
:100280000E940A0360E081E20E940A0361E08EE1BD
:100290000E948D0361E08FE10E948D0361E080E2A6
:1002A0000E948D0361E081E20E948D0361E082E2A1
:1002B0000E940A0361E083E20E940A0361E084E293
:1002C0000E940A0361E085E20E940A0361E082E283
:1002D0000E948D0361E083E20E948D0361E084E26D
:1002E0000E948D0361E085E20E948D0308951F93B3
:1002F000CF93DF93D2E21FEF3CC060E08D2F0E94CE
:100300008D03CEE12FC08C2F0E941004811129C0D3
:100310002FEF80E792E0215080409040E1F700C04D
:1003200000008C2F0E941004811111C08C2F90E0CE
:100330004E972D2F30E022523109880F991F880FD8
:10034000991F805A9F4FFC01E20FF31F10818C2FE1
:100350000E94100403C08C2F0E9410048823D9F33C
:1003600003C0CF5FC23278F261E08D2F0E948D030F
:10037000DF5FD63210F2812FDF91CF911F91089568
:10038000CF93C82F60E084E10E948D0360E086E196
:100390000E948D0385B38F709C2F907F892B85BB26
:1003A00061E085E10E948D038FE39FE10197F1F702
:1003B00000C0000060E085E10E948D038FE39FE1B3
:1003C0000197F1F700C0000025B330E1C39FC001E1
:1003D0001124922F9F70892B85BB8FE39FE101979A
:1003E000F1F700C0000061E085E10E948D038FE31A
:1003F0009FE10197F1F700C0000060E085E10E94F5
:100400008D039FEF29EF30E0915020403040E1F71D
:1004100000C00000CF9108952FEF89EF90E02150A8
:1004200080409040E1F700C0000084B3806F84BB3F
:1004300061E084E10E940A0361E085E10E940A0311
:1004400061E086E10E940A0382E00E94C00188E226
:100450000E94C0018CE00E94C00181E00E94C001A6
:1004600086E00E94C0012FEF89EF90E0215080408C
:100470009040E1F700C000000895CF93C82F61E0DD
:1004800084E10E948D0360E086E10E948D0385B3C4
:100490008F709C2F907F892B85BB61E085E10E9446
:1004A0008D038FE39FE10197F1F700C0000060E04A
:1004B00085E10E948D038FE39FE10197F1F700C072
:1004C000000025B330E1C39FC0011124922F9F701B
:1004D000892B85BB8FE39FE10197F1F700C00000F6
:1004E00061E085E10E948D038FE39FE10197F1F7C1
:1004F00000C0000060E085E10E948D039FEF29EFBE
:1005000030E0915020403040E1F700C00000CF9132
:100510000895CF93DF93EC0103C00E943D02219622
:1005200088818111FACFDF91CF910895882319F046
:10053000813031F0089561E080E00E940A0308955F
:1005400061E081E00E940A030895882319F0813058
:1005500031F0089561E080E00E948D03089561E02C
:1005600081E00E948D030895882319F0813031F0D5
:10057000089560E080E00E948D03089560E081E0CE
:100580000E948D030895882319F0813029F0089581
:1005900080E00E945004089581E00E945004089574
:1005A00061E083E00E940A0361E084E00E940A03A4
:1005B00061E085E00E940A0361E086E00E940A0390
:1005C00061E087E00E940A03089561E087E00E94ED
:1005D0008D03089560E087E00E948D030895CF9316
:1005E000C82F682F617083E00E948D03C1FB6627CE
:1005F00060F984E00E948D03C2FB662760F985E004
:100600000E948D03C3FB662760F986E00E948D037C
:10061000CF9108959DEC899F912D1124292F269526
:1006200026952695220F322F330F330F230F821B6F
:10063000282F9695969596956623B9F1613009F025
:100640006BC0913089F028F09230C9F0933011F1ED
:1006500008953AB381E090E002C0880F991F2A956F
:10066000E2F7832B8ABB089537B381E090E002C0A4
:10067000880F991F2A95E2F7832B87BB089534B31F
:1006800081E090E002C0880F991F2A95E2F7832B42
:1006900084BB089531B381E090E002C0880F991FB8
:1006A0002A95E2F7832B81BB0895913091F028F0D1
:1006B0009230D9F0933029F108953AB381E090E077
:1006C00002C0880F991F2A95E2F7809583238ABB81
:1006D000089537B381E090E002C0880F991F2A95F2
:1006E000E2F78095832387BB089534B381E090E0DF
:1006F00002C0880F991F2A95E2F78095832384BB57
:10070000089531B381E090E002C0880F991F2A95C7
:10071000E2F78095832381BB08959DEC899F912DFD
:100720001124292F269526952695220F322F330F37
:10073000330F230F821B282F969596959695662347
:10074000B9F1613009F06BC0913089F028F0923036
:10075000C9F0933011F108953BB381E090E002C0FD
:10076000880F991F2A95E2F7832B8BBB089538B326
:1007700081E090E002C0880F991F2A95E2F7832B51
:1007800088BB089535B381E090E002C0880F991FBF
:100790002A95E2F7832B85BB089532B381E090E080
:1007A00002C0880F991F2A95E2F7832B82BB089518
:1007B000913091F028F09230D9F0933029F10895DA
:1007C0003BB381E090E002C0880F991F2A95E2F7C1
:1007D000809583238BBB089538B381E090E002C0FD
:1007E000880F991F2A95E2F78095832388BB089587
:1007F00035B381E090E002C0880F991F2A95E2F797
:100800008095832385BB089532B381E090E002C0D8
:10081000880F991F2A95E2F78095832382BB08955C
:100820009DEC899F912D1124292F2695269526959B
:10083000220F322F330F330F230F821B282F892FC4
:10084000869586958695813079F028F08230A9F0DA
:100850008330E1F024C089B390E002C0959587957C
:100860002A95E2F78170089586B390E002C09595CD
:1008700087952A95E2F78170089583B390E002C0CE
:10088000959587952A95E2F78170089580B390E059
:1008900002C0959587952A95E2F78170089508958D
:1008A0009DEC899F912D1124292F2695269526951B
:1008B000220F322F330F330F230F821B282F892F44
:1008C000869586958695813089F028F08230C9F02A
:1008D000833011F108953BB381E090E002C0880FAE
:1008E000991F2A95E2F783278BBB089538B381E0DF
:1008F00090E002C0880F991F2A95E2F7832788BBF2
:10090000089535B381E090E002C0880F991F2A95C1
:10091000E2F7832785BB089532B381E090E002C0FF
:10092000880F991F2A95E2F7832782BB0895F894D0
:02093000FFCFF7
:100932003738392F3435362A3132332D3F003D2BAB
:1009420077656C636F6D650070617373776F726446
:100952003A0072696768740077726F6E672074720A
:100962007920616761696E200077726F6E6721215D
:0809720021003132322B00009C
:00000001FF
